:10000000D5C3000004C4000002C4000000C4000006
:10001000FEC30000FCC30000FAC30000F8C30000E8
:10002000F6C30000F4C30000F2C30000F0C30000F8
:10003000EEC30000ECC30000EAC30000E8C3000008
:10004000E6C30000E4C30000E2C30000E0C3000018
:10005000DEC30000DCC30000DAC300000C94DF0C38
:10006000D6C300000C94BD0B0C94940BD0C30000BD
:10007000CEC30000CCC30000CAC30000C8C3000048
:10008000C6C30000C4C30000C2C30000C0C3000058
:10009000BEC30000BCC30000BAC30000B8C3000068
:1000A000B6C30000B4C30000B2C30000B0C3000078
:1000B000AEC30000ACC30000AAC30000A8C3000088
:1000C000A6C30000A4C30000A2C30000A0C3000098
:1000D0009EC300009CC300009AC3000098C30000A8
:1000E00096C300001B1890185A1842189F159F15A8
:1000F00015189F1515189F151518151815189F1503
:1001000015181518560B590B480B4C0B520B900B2E
:100110005D0B610B670B6B0B6F0B750B790B7D0B1D
:10012000900B830B870B8B0B000102030405060861
:10013000090A0B0D0E1012131517191B1D2022256D
:10014000272A2D3033373A3E4145494D52565B5FA1
:1001500064696E74797F858B91979DA4ABB2B9C0A9
:10016000C7CFD6DEE6EEF7FF000102030507090B55
:100170000E1114181D22282E363D464F59646F7CEF
:100180008997A6B6C7D9EBFF00000000003E5B4F81
:100190005B3E3E6B4F6B3E1C3E7C3E1C183C7E3CE7
:1001A000181C577D571C1C5E7F5E1C00183C1800F5
:1001B000FFE7C3E7FF0018241800FFE7DBE7FF3085
:1001C000483A060E2629792926407F050507407FF3
:1001D00005253F5A3CE73C5A7F3E1C1C08081C1C66
:1001E0003E7F14227F22145F5F005F5F06097F015C
:1001F0007F006689956A606060606094A2FFA29447
:1002000008047E040810207E201008082A1C080814
:100210001C2A08081E101010100C1E0C1E0C303862
:100220003E3830060E3E0E06000000000000005F63
:1002300000000007000700147F147F14242A7F2A7F
:100240001223130864623649562050000807030041
:10025000001C2241000041221C002A1C7F1C2A088D
:10026000083E0808008070300008080808080000F0
:1002700060600020100804023E5149453E00427F64
:10028000400072494949462141494D331814127FB3
:100290001027454545393C4A494931412111090753
:1002A0003649494936464949291E000014000000D4
:1002B00040340000000814224114141414140041A6
:1002C00022140802015909063E415D594E7C121163
:1002D000127C7F494949363E414141227F4141419B
:1002E0003E7F494949417F090909013E4141517316
:1002F0007F0808087F00417F41002040413F017F87
:10030000081422417F404040407F021C027F7F044E
:1003100008107F3E4141413E7F090909063E415197
:10032000215E7F09192946264949493203017F0187
:10033000033F4040403F1F2040201F3F4038403F88
:10034000631408146303047804036159494D43009E
:100350007F4141410204081020004141417F0402D5
:10036000010204404040404000030708002054546C
:1003700078407F284444383844444428384444284A
:100380007F385454541800087E090218A4A49C789D
:100390007F0804047800447D40002040403D007FF9
:1003A0001028440000417F40007C047804787C08D9
:1003B0000404783844444438FC18242418182424AD
:1003C00018FC7C08040408485454542404043F4492
:1003D000243C4040207C1C2040201C3C4030403CC1
:1003E00044281028444C9090907C4464544C440021
:1003F0000836410000007700000041360800020185
:100400000204023C2623263C1EA1A161123A404070
:10041000207A3854545559215555794122545478ED
:1004200042215554784020545579400C1E52721286
:10043000395555555939545454593955545458000F
:1004400000457C410002457D420001457C407D1213
:1004500011127DF0282528F07C5455450020545475
:100460007C547C0A097F4932494949323A44444420
:100470003A324A4848303A4141217A3A424020785B
:10048000009DA0A07D3D4242423D3D4040403D3C5C
:1004900024FF2424487E4943662B2FFC2F2BFF0981
:1004A00029F620C0887E0903205454794100004475
:1004B0007D413048484A32384040227A007A0A0A60
:1004C000727D0D19317D2629292F282629292926D3
:1004D00030484D4020380808080808080808382F18
:1004E00010C8ACBA2F102834FA00007B00000814A2
:1004F0002A142222142A14085500550055AA55AA78
:1005000055AAFF55FF55FF000000FF00101010FF17
:1005100000141414FF001010FF00FF1010F010F072
:10052000141414FC001414F700FF0000FF00FF1463
:1005300014F404FC141417101F10101F101F1414AF
:10054000141F00101010F0000000001F10101010F9
:100550001F10101010F010000000FF1010101010ED
:1005600010101010FF10000000FF140000FF00FF2B
:1005700000001F10170000FC04F4141417101714C7
:1005800014F404F40000FF00F714141414141414E9
:10059000F700F7141414171410101F101F1414145C
:1005A000F4141010F010F000001F101F0000001FC6
:1005B00014000000FC140000F010F01010FF10FFF9
:1005C000141414FF141010101F00000000F010FF8E
:1005D000FFFFFFFFF0F0F0F0F0FFFFFF0000000072
:1005E00000FFFF0F0F0F0F0F3844443844FC4A4AF6
:1005F0004A347E02020606027E027E0263554941AB
:10060000633844443C04407E201E2006027E0202E1
:1006100099A5E7A5991C2A492A1C4C7201724C30F5
:100620004A4D4D303048784830BC625A463D3E49CC
:100630004949007E0101017E2A2A2A2A2A44445F70
:10064000444440514A444040444A51400000FF0164
:1006500003E080FF000008086B6B08361236243672
:10066000060F090F060000181800000010100030D7
:1006700040FF0101001F01011E00191D1712003C5F
:100680003C3C3C000000000000002100240027004A
:100690002A002D0030003300010100000401070191
:1006A0000A01000020002300260029002C002F0052
:1006B00032000001000003010601090100000A0BDD
:1006C00002090C0D0E0807030401000000000000E1
:1006D000000000000000000000000000000000001A
:1006E00000000000000000001211100000000000D7
:1006F00000000000000000000000000000000000FA
:100700000000010210202008081020401020408026
:1007100002010201080402010102040810204080C5
:100720008040201008040201800402018040201053
:10073000080402010804020101020408102040809C
:10074000010204081020408000002200250028003B
:100750002B002E00310034000201000005010801C9
:100760000B01050505050705080808080202020235
:100770000A0A08080404040401010101010101013D
:100780000303030303030303040707070C0C0C0C08
:100790000C0C0C0C020202020606060606060606F1
:1007A0000B0B0B0B0B0B0B0B021AED1911241FBEBD
:1007B000CFEFD1E2DEBFCDBF00E00CBF12E0A0E082
:1007C000B2E0E0EFFEE300E00BBF02C007900D9245
:1007D000A23BB107D9F726E0A2EBB2E001C01D921F
:1007E000A23AB207E1F713E0C5EDD3E000E006C09E
:1007F00021970109802FFE010E942E1EC43DD107C2
:1008000080E00807A9F70E94CD120C94671FF8CB6F
:10081000EF92FF920F931F93DC01ED91FC911197E2
:100820001A960D911C911B9718962D913C91199732
:100830000684F785E02D7B0140E050E060E070E049
:1008400019951F910F91FF90EF9008956F927F92ED
:100850008F929F92AF92BF92CF92DF92EF92FF92D0
:100860000F931F93CF93DF936C015A014801EB0163
:100870003B01620E731EC615D70574F4D601ED91C7
:10088000FC910084F185E02D87019401A501BE0152
:10089000C60119952196EFCFDF91CF911F910F914E
:1008A000FF90EF90DF90CF90BF90AF909F908F9090
:1008B0007F906F900895EF92FF920F931F93DC014A
:1008C000ED91FC91260F371F215031090680F781E9
:1008D000E02D78018A0119951F910F91FF90EF90FB
:1008E0000895EF92FF920F931F937801DC01ED9131
:1008F000FC91240F351F8901015011090680F781F1
:10090000E02D9B0119951F910F91FF90EF90089595
:100910006F927F928F929F92AF92BF92CF92DF920F
:10092000EF92FF920F931F93CF93DF93EC014B0154
:100930005A0169013801E881F9810284F385E02DCB
:1009400087011995E881F981A501460D571D415090
:1009500051090284F385E02D9601B401CE01199569
:10096000E881F9810084F185E02D9301A501B401AE
:10097000CE011995E881F981C80CD91CB6016150E6
:1009800071090084F185E02D9301A501CE0119952F
:10099000DF91CF911F910F91FF90EF90DF90CF905B
:1009A000BF90AF909F908F907F906F9008952F92FF
:1009B0003F924F925F926F927F928F929F92AF92EF
:1009C000BF92CF92DF92EF92FF920F931F93CF933C
:1009D000DF9300D0CDB7DEB74C017B836A836A0119
:1009E000590117019801241B350B37FF03C03195BE
:1009F00021953109C5014A815B81841B950B97FFC5
:100A000003C091958195910951E05983821793070D
:100A100014F019820BC09A2D8B2D5801092F182F15
:100A20009A818B81DB82CA82C92ED82E8A819B81D2
:100A3000A816B9065CF49C2D8D2D6801092F182F7E
:100A40009A818B81BB82AA82A92EB82E2501AA8108
:100A5000BB814A1A5B0A38016C187D0877FE03C017
:100A6000719461947108720157FE03C0BFEFEB1AD5
:100A7000FB0AF594E794C016D1061CF00FEF1FEFA8
:100A80001FC001E010E01CC0D401ED91FC91B981C0
:100A90000480F581E02D9101BB23C1F04A815B8187
:100AA000B601C4011995E618F708F7FE04C0C00E98
:100AB000D11EE40CF51CEA81FB813196FB83EA83AD
:100AC0004A815B81A416B506FCF604C0A6016A81C2
:100AD0007B81E7CF0F900F900F90DF91CF911F9107
:100AE0000F91FF90EF90DF90CF90BF90AF909F90CD
:100AF0008F907F906F905F904F903F902F900895D0
:100B0000FC01EF2FFF27E695E695E695E859FE4FA5
:100B10002491FC0135E0F695E7953A95E1F7EF73FE
:100B2000FF27E85DFE4F64918F719927FC01E8591A
:100B3000FE4FE491862F90E0A0E0B0E0BA2FA92FFD
:100B4000982F8827A22BBC01CD016E2B0895AF9260
:100B5000BF92CF92EF92FF920F931F93CF93DF93A9
:100B6000EC01262F888D998D009709F042C06A30DC
:100B700069F42C898E859F8538E0239F800D911D17
:100B800011249F878E871D861C86ABC06D3009F4AB
:100B9000A8C08E898823C1F03C898C859D8546E05C
:100BA000349F800D911D1124488559858417950720
:100BB0005CF01D861C868E859F85E8E03E9F800D3B
:100BC000911D11249F878E87EA88FB8808891989DF
:100BD0004E855F856C857D85CC88CE010E945D0E3B
:100BE0002C898C859D85F6E02F9F800D911D112409
:100BF00041C06A3079F41D861C862C89FC0136962A
:100C0000E4918E859F852E9F800D911D11249F87D5
:100C10008E8767C06D3009F464C0AC014C5F5F4FD4
:100C2000FA013491631708F45CC03196E491E61739
:100C300008F457C0FA014491362F341BFC01329658
:100C4000A590B490F7E03F9FA00CB11C1124F501D2
:100C5000329634913196E491332311F0E1110DC0B5
:100C6000F5013496E4912C898C859D85E29F800D59
:100C7000911D11249D878C8734C0F50135964491D0
:100C80005E89552311F16C89E32FF0E0E40FF11D2B
:100C900047FDFA956E9FD0016F9FB00D11244C85D2
:100CA0005D854A0F5B1FE885F9854E175F076CF07D
:100CB0001D861C86FC013696E4918E859F856E9F6D
:100CC000800D911D11249F878E87EA88FB880889F3
:100CD00019894E855F856C857D85CC88CE01EDD7E1
:100CE000BFCF81E090E0DF91CF911F910F91FF90F6
:100CF000EF90CF90BF90AF9008954F925F926F9218
:100D00007F928F929F92AF92BF92CF92DF92EF929B
:100D1000FF920F931F93CF93DF938C01EB017A0126
:100D2000590177FD2AC157FD28C1DC0118968D9124
:100D30009C911997681779070CF01FC11A968D912D
:100D40009C911B97481759070CF017C155968C9129
:100D50005597823071F08330E1F0813011F51496AF
:100D60008D919C9115970197841B950B7B01EC014C
:100D700018C0F8018481958101979C01261B370BCF
:100D8000E901868197810197DC01A41BB50B7D01E8
:100D900008C0F801868197810197861B970BEA01AD
:100DA0007C01D801D496ED91FC91D597309739F01C
:100DB000B701CE011995EC01C12CD12CB2C0F801BC
:100DC00047A5F42FF3707F2ED801D2966C90D2975E
:100DD000662009F464C0D0964C90842C912CCE01EE
:100DE000B4010E94DD1D6B01F80151A8252D30E0F2
:100DF000C701B9010E94DD1DFB01C89CC001C99C4F
:100E0000900DD89C900D1124C81BD90B629FC00176
:100E1000639F900D729F900D1124E81AF90A45FF07
:100E200007C0862D90E001979C012C193D096901AE
:100E300044FF07C0D801D396EC91F0E03197E61B50
:100E4000F70B46FD08C0262D30E09E2F8F2FF601B0
:100E5000C92ED82E05C0D801D3966C90262D30E02F
:100E600047FF09C0C0FE07C083E07826E095F095F3
:100E7000BFEFCB1ADB0A2C9DC0012D9D900D3C9D30
:100E8000900D1124E80FF91F549C200111244E9E4F
:100E900060014F9ED00C5E9ED00C112402C0C12C6C
:100EA000D12C9E01C70171FE09C0F80160A970E054
:100EB00061507109DB01AC1BBD0B9D0170FE06C0CA
:100EC000F80181A990E001978E199F09D80142FD90
:100ED00009C0D096EC91F0E0682F592FC901262F58
:100EE000352F03C0D196EC91F0E043FF11C020FFF5
:100EF0000FC080959095E9012196CE9F9001CF9FDC
:100F0000300DDE9F300D1124EC01C20FD31F09C03C
:100F1000E29FE001E39FD00DF29FD00D1124C80F96
:100F2000D91FF80182AD882329F026A937A940AD41
:100F300051AD04C0C501E4DD9B01AC01C6018C0FBD
:100F40009D1FD8015C966D917C915D9786179707E0
:100F5000A0F4BC01C8014A96DF91CF911F910F9177
:100F6000FF90EF90DF90CF90BF90AF909F908F90C9
:100F70007F906F905F904F903AC6DF91CF911F9115
:100F80000F91FF90EF90DF90CF90BF90AF909F9028
:100F90008F907F906F905F904F9008958F929F9267
:100FA000AF92BF92CF92DF92EF92FF920F931F9377
:100FB000CF93DF938C01CB01F80122AD222329F0DE
:100FC00086A897A8A0ACB1AC03C09ADD4B015C0128
:100FD0006801FAE1CF0ED11CF801E48CF58CC0E079
:100FE000D0E0CE15DF0569F0F801848D958DC81726
:100FF000D90728F4A5019401BE01C601F8D52196B0
:10100000F0CFDF91CF911F910F91FF90EF90DF9084
:10101000CF90BF90AF909F908F9008956D3F7105D6
:101020003CF46A3F710554F4683F710589F406C0C9
:101030009B012E5F31092230310550F4DC018D9186
:101040009C91DC01ED91FC910190F081E02D1994CF
:10105000089587FF0DC09CE0980F923048F0982FBC
:101060009B7F993F29F0803F08F4807F90E00895AE
:1010700080E090E008959C018F7C8038910561F0BC
:10108000203D310549F081E0203E310539F0203C1A
:10109000310521F080E0089581E008950895CF9210
:1010A000DF92EF92FF920F931F93CF93DF93C12CA8
:1010B000D12CE12CF12CE70100E010E0F801EE0D5D
:1010C000FF1DE854FD4F20818091B6029091B70238
:1010D000222389F08017910739F4209184044091EC
:1010E00082046091800425C020918A044091880484
:1010F000609186041EC08017910739F420919004F6
:1011000040918E0460918C0414C0809113029091E0
:1011100014028C159D0539F420917E0440917C04C5
:1011200060917A0406C020919604409194046091E5
:101130009204CE010E94241221960F5F1F4F0830A7
:10114000110509F0BBCF88E0E80EF11C8FEFC81A3B
:10115000D80A80E4E816F10409F0ADCFDF91CF9111
:101160001F910F91FF90EF90DF90CF900C9467113B
:10117000EF92FF920F931F93CF93DF93C9E0D3E0D9
:101180000FE112E0780193E0C131D907A9F089910C
:10119000882371F08091F802F7016081F8E08F9F59
:1011A000600D112421E04FE780E890E00E946A1270
:1011B00082E0E80EF11CE7CF33E0E32E32E0F32EBD
:1011C000C0E0D0E08091B6029091B702FE0123E02A
:1011D000EE0FFF1F2A95E1F7E80FF91FE854FD4FC6
:1011E00080818823A1F08091F802F8016081F8E005
:1011F0008F9F600D112421E0F701408180E990E08C
:101200000E946A1281E0FE01E75FFC4F8083219615
:10121000F2E0EF0EF11C0E5F1F4FC830D10591F6C2
:10122000DF91CF911F910F91FF90EF9038CF809178
:1012300007039091080368E170E00E94DD1D892B8F
:10124000C1F480911802811111C08091B602909171
:10125000B70201968830910529F09093B7028093E8
:10126000B60204C01092B7021092B6021092180291
:101270007FDF809107039091080301969093080304
:1012800080930703089581E0809318021092080369
:10129000109207031092B7021092B60200CF83E5B6
:1012A00096E056D48091FA029091FB02892B61F46A
:1012B00080E0BAD782E992E0A6D681E0B5D78091E6
:1012C0001502909116027CD78091FA029091FB0250
:1012D000019761F480E0A8D786E992E094D681E096
:1012E000A3D78091F8029091F9026AD78091FA020F
:1012F0009091FB02029791F480E096D78DE992E0FD
:1013000082D681E091D7E0911302F0911402EE0FA2
:10131000FF1FED5FFD4F8081918152D78091FA02CE
:101320009091FB02039761F480E07ED786EA92E019
:101330006AD681E079D7809101029091020240C77C
:101340000895E0911302F091140223E0EE0FFF1FC5
:101350002A95E1F78E0F9F1FFC01E854FD4F908105
:1013600081E0892780839BCE1F93CF93DF93EC018D
:10137000909314028093130292DE91DF87E796E048
:10138000D8D2811125C0CC0FDD1FFE01E15EFD4FDB
:101390001081CD5FDD4F8091F802612F98E0899F29
:1013A000600D112421E0488180E990E00E946A12DA
:1013B0008091F802612F98E0899F600D112421E04F
:1013C00044E680E890E0DF91CF911F910C946A127F
:1013D000DF91CF911F910895FC01DB0112962D91B1
:1013E0003D914C91149722833383448315962D911C
:1013F0003D914C9117972583368347838BE792E085
:101400009183808318968C911897808719968C9178
:10141000199781871A968C911A9782871B968C91BF
:1014200083870895DC01ED91FC910190F081E02D1E
:101430001994CF92DF92EF92FF920F931F93CF9365
:10144000DF936C017A018B01C0E0D0E0CE15DF059F
:1014500089F0D8016D918D01D601ED91FC9101903B
:10146000F081E02DC6011995892B11F47E0102C08F
:101470002196ECCFC701DF91CF911F910F91FF9083
:10148000EF90DF90CF900895FC01918D828D981799
:1014900061F0828DDF01A80FB11D5D968C91928D58
:1014A0009F5F9F73928F90E008958FEF9FEF089555
:1014B000FC01918D828D981731F0828DE80FF11D1E
:1014C000858D90E008958FEF9FEF0895FC01918D39
:1014D000228D892F90E0805C9F4F821B91098F7332
:1014E0009927089586E193E0F1DF21E0892B09F443
:1014F00020E0822F0895FC01848DDF01A80FB11D2B
:10150000A35ABF4F2C91848D90E001968F73992739
:10151000848FA689B7892C93A089B1898C91806426
:101520008C93938D848D981306C00288F389E02DE7
:1015300080818F7D80830895EF92FF920F931F9398
:10154000CF93DF93EC0181E0888F9B8D8C8D981376
:1015500005C0E889F989808185FD23C0F62E0B8DB1
:1015600010E00F5F1F4F0F731127E02E8C8DE812D4
:101570000BC00FB607FCFACFE889F989808185FF97
:10158000F5CFCE01B8DFF2CF8B8DFE01E80FF11D54
:10159000E35AFF4FF0820B8FEA89FB8980818062DA
:1015A00007C0EE89FF896083E889F98980818064BA
:1015B000808381E090E0DF91CF911F910F91FF90A8
:1015C000EF900895CF93DF93EC01888D8823C1F0CD
:1015D000EA89FB89808185FD05C0A889B9898C913C
:1015E00086FD0EC00FB607FCF5CF808185FFF2CFD8
:1015F000A889B9898C9185FFEDCFCE017CDFE8CF3A
:10160000DF91CF91089580E090E0892B19F06ADF97
:10161000811125C080E090E0892B41F080E090E0CE
:10162000892B21F00E94000081111CC080E090E015
:10163000892B41F080E090E0892B21F00E9400008E
:10164000811113C080E090E0892BA1F080E090E050
:10165000892B81F00E94000081110AC008950E9428
:101660000000D8CF0E940000E1CF0E940000EACF26
:101670000C940000089590E0FC013197E231F105EF
:1016800008F04EC08827EE57FF4F8F4F0C942E1E48
:10169000809180008F7703C0809180008F7D809340
:1016A0008000089580918000877FF9CF84B58F777F
:1016B00002C084B58F7D84BD08958091B0008F777E
:1016C00003C08091B0008F7D8093B0000895809119
:1016D00090008F7707C0809190008F7D03C080912C
:1016E0009000877F8093900008958091A0008F776D
:1016F00007C08091A0008F7D03C08091A000877FEC
:101700008093A0000895809120018F7707C0809179
:1017100020018F7D03C080912001877F809320016D
:10172000089508950E94631F1F920F920FB60F92A3
:1017300011240BB60F922F933F934F935F936F93A8
:101740007F938F939F93AF93BF93EF93FF9386E124
:1017500093E0D1DEFF91EF91BF91AF919F918F9177
:101760007F916F915F914F913F912F910F900BBEA1
:101770000F900FBE0F901F9018951F920F920FB6EB
:101780000F9211240BB60F922F938F939F93EF9389
:10179000FF93E0912603F09127038081E0912C03D1
:1017A000F0912D0382FD12C0908180912F038F5FF5
:1017B0008F7320913003821751F0E0912F03F0E0F6
:1017C000EA5EFC4F958F80932F0301C08081FF91CB
:1017D000EF919F918F912F910F900BBE0F900FBEA5
:1017E0000F901F901895CF93DF93282F30E0F901C9
:1017F000E454F94F8491F901EE5FF84FD491F90167
:10180000EE59F84FC491CC2389F0811134DFEC2FCD
:10181000F0E0EE0FFF1FEE55F94FA591B491EC915A
:10182000ED2381E090E021F480E002C080E090E0D0
:10183000DF91CF9108951F93CF93DF93282F30E04E
:10184000F901E454F94F8491F901EE5FF84FD49116
:10185000F901EE59F84FC491CC23C1F0162F811134
:101860000ADFEC2FF0E0EE0FFF1FE85BF84FA591C9
:10187000B4918FB7F894111105C09C91ED2FE095AC
:10188000E92302C0EC91ED2BEC938FBFDF91CF9158
:101890001F910895CF93DF93EC0160E08E81CBDF41
:1018A00061E08E81C8DF60E08E81C5DF8BE891E06A
:1018B0000197F1F7DF91CF910895CF93DF9390E0F7
:1018C000FC01EE5FF84F2491FC01EE59F84F849132
:1018D000882361F190E0880F991FFC01E857F94FC8
:1018E000C591D491FC01E85BF84FA591B4916111C9
:1018F00009C09FB7F8948881209582238883EC9152
:101900002E230BC0623061F49FB7F8943881822F88
:10191000809583238883EC912E2B2C939FBF06C048
:101920008FB7F894E8812E2B28838FBFDF91CF915A
:101930000895CF93DF93EC01888581110EC081E07B
:1019400088878A85882311F062E001C060E089857C
:10195000B4DF8FE090E00197F1F7898544DF2B85B4
:1019600030E041E08217930709F440E0842FDF91D3
:10197000CF9108953FB7F89480911203909113038B
:10198000A0911403B091150326B5A89B05C02F3F65
:1019900019F00196A11DB11D3FBFBA2FA92F982F95
:1019A0008827820F911DA11DB11DBC01CD0142E010
:1019B000660F771F881F991F4A95D1F708951F92C8
:1019C0000F920FB60F9211242F933F938F939F93F3
:1019D000AF93BF938091B2029091B302A091B402F1
:1019E000B091B5023091110323E0230F2D3720F47D
:1019F0000196A11DB11D05C026E8230F0296A11D69
:101A0000B11D209311038093B2029093B302A0936F
:101A1000B402B093B5028091120390911303A09188
:101A20001403B09115030196A11DB11D80931203FB
:101A300090931303A0931403B0931503BF91AF9138
:101A40009F918F913F912F910F900FBE0F901F90FC
:101A50001895CF92DF92EF92FF920F931F93CF933F
:101A6000DF937C016C0187E0C80ED11CC0E0D0E0A0
:101A7000062F10E0B8010C2E02C0759567950A94E8
:101A8000E2F76170F60181916F01D5DE2196C430D5
:101A9000D10581F7C701DF91CF911F910F91FF9081
:101AA000EF90DF90CF90F6CECF92DF92EF92FF9241
:101AB0000F931F93CF93DF93EC01F62E642F8C814D
:101AC000BADE8D818F3F11F060E0B5DE8F850F2D7E
:101AD00010E084FF23C06E0187E0C80ED11CE12C0A
:101AE000F12CB8010E2C02C0759567950A94E2F7A7
:101AF0006170F60181916F019EDEFFEFEF1AFF0A20
:101B000088E0E816F10469F7CE01DF91CF911F91CB
:101B10000F91FF90EF90DF90CF90BCCEB80184E0A2
:101B2000759567958A95E1F7CE0193DF6F2DCE010C
:101B3000DF91CF911F910F91FF90EF90DF90CF90A9
:101B400088CF41E0B1DF81E090E0089540E0ACCF84
:101B500061E0FCDF8BE39FE10197F1F70895CF93FC
:101B6000DF93EC01E881F9810190F081E02D199576
:101B700021E082279FB7F8944091B2025091B302BE
:101B80006091B4027091B5029FBF9D81913061F068
:101B900028F09230B1F09330D9F025C0811123C0E4
:101BA0005F834E832D8320C0882311F01D821BC0CC
:101BB0002E813F81421B530B4F305105A8F082E02C
:101BC00005C0882389F05F834E8383E08D830BC03B
:101BD0008823A9F32E813F81421B530B4F305105BF
:101BE00010F01D8201C080E0DF91CF9108958F92A7
:101BF0009F92AF92BF92CF92DF92EF92FF920F939C
:101C00001F93CF93DF93FC014A01AA24BB24B82D74
:101C1000C32ED42EE52EFF24AC2D922F878188234E
:101C200061F0889E40011124B92DC89E60011124E5
:101C3000AD2D289FE00111249D2FD584C285E0841D
:101C4000F184DC1208C09B01220F331F620F731F47
:101C50006E0D7F1D16C0660F771F660F771F6E0D06
:101C60007F1D052F112722273327EB01CD0DD11D15
:101C7000882329F0089F90011124232F01C0202FD1
:101C800028838285EB01C80FD11DB8838385EB01C2
:101C9000C80FD11DA8838485FB01E80FF11D908337
:101CA000DF91CF911F910F91FF90EF90DF90CF9038
:101CB000BF90AF909F908F9008952F923F924F9238
:101CC0005F926F927F928F929F92AF92BF92CF92CC
:101CD000DF92EF92FF920F931F93CF93DF93CDB7D5
:101CE000DEB76B970FB6F894DEBF0FBECDBF4C01C9
:101CF0005A8349831F830E83FD82EC82CB82DC01F1
:101D000058964D915C9159974115510509F0A5C020
:101D100018968D919C911997681779070CF05AC104
:101D20001A968D919C911B97E981FA81E817F90722
:101D30000CF050C1D12CCB013B81F6E03F9F800DD0
:101D4000911D1124181619060CF044C1C60133E088
:101D5000880F991F3A95E1F749815A81840F951FA1
:101D6000181619060CF036C157968C91811103C0D4
:101D7000203B08F02F5F55E0259F900111247E87BE
:101D80006D875B01212CC901861B970B998788877A
:101D9000A981BA811896BB87AA87B5E02B1641F0B6
:101DA000E885F985EA0DFB1DE857FE4F349001C028
:101DB000312C69807A80230130FE12C0D401ED916C
:101DC000FC91BB81B13031F40480F581E02D2E818E
:101DD0003F8118C00684F785E02DEE80FF801CC08F
:101DE000EC81FD812E813F81E217F307E1F0D40100
:101DF000ED91FC91BB81B13051F40480F581E02D6F
:101E00002C813D81A301B501C40119950CC0068444
:101E1000F785E02DEC80FD8086019601A2016D859D
:101E20007E85C40119953694EFEF6E1A7E0A4C0C2C
:101E30005D1C2A853B856216730609F0BDCF23948D
:101E40003FEFA31AB30A4D855E854C0D5D1D5E877D
:101E50004D8756E02512A1CFBDC0FA0134963491CA
:101E6000329785919491231BA7E02A9F800D911DA5
:101E70001124FA01259134913A8B298BFC0125908C
:101E80003490FC01329634913887319644914C87D6
:101E90003196E491FC013596A491319684915B8151
:101EA000523050F06A2E0A2E000C7708E82F082EC8
:101EB000000CFF0BFB87EA87FB81CF2ED12C6C9C9B
:101EC00090016D9C300D7C9C300D1124A901460FB2
:101ED000571F588B4F871C82A12CEA2FAA0FFF0B8C
:101EE0003B016E0E7F1E5885650F711DDB01AE0F25
:101EF000BF1FBF8BAE8BE981FA81E80FF11D87FD13
:101F0000FA95F98FE88F9C85A91608F063C08A2D91
:101F100090E04A855B85480F591F4C9D90014D9D6F
:101F2000300D5C9D300D1124A981BA81A20FB31F21
:101F3000BE87AD877B8E6A8E4F845888BC81B61968
:101F4000BB8BE88DF98DE80FF91FFD8BEC8B8B892E
:101F5000FA8D8F0F2A8D3B8D4E895F8924173507A7
:101F600099F1877041F4C1010196E989FA89E20D7E
:101F7000F31DB4901C01B7FE1EC0D401ED91FC917D
:101F8000BB81B13061F40480F581E02D2E813F8169
:101F90004C895D896A8D7B8DC40119950CC00684BE
:101FA000F785E02DEE80FF80860196014D855E85E8
:101FB000B201C4011995BB0CEA8DFB8D3196FB8FE4
:101FC000EA8F4C0C5D1CC3CF5C818885580F5C8305
:101FD000A39499CF6B960FB6F894DEBF0FBECDBF1A
:101FE000DF91CF911F910F91FF90EF90DF90CF90F5
:101FF000BF90AF909F908F907F906F905F904F9029
:102000003F902F900895009761F0FC01019000200F
:10201000E9F73197AF01481B590BBC0183E596E006
:1020200008CA80E090E00895EF92FF920F931F930B
:10203000CF93DF93EC01623018F08F8588608F8733
:102040006B8B1C8A80E48D8B80E18E8B80E58F8B7F
:1020500061E08C8132DC8D818F3F11F061E02DDCFD
:1020600061E08E812ADC7E0187E0E80EF11C00E051
:1020700010E08F8584FD03C084E090E002C088E01A
:1020800090E00817190744F461E0F70181917F019E
:1020900014DC0F5F1F4FEDCF8BE39DE00197F1F74D
:1020A00060E08C81C8DB60E08E81C5DB8D818F3F75
:1020B00011F060E0C0DB6F8564FD19C063E0CE0104
:1020C000C8DC0BE416E4C8010197F1F763E0CE0128
:1020D000C0DCC8010197F1F763E0CE01BADC83E50B
:1020E00092E00197F1F762E0CE01B3DC13C06062C9
:1020F000CE012CDD8BE496E40197F1F76F856062E9
:10210000CE0124DD83E592E00197F1F76F856062EF
:10211000CE011CDD6F856062CE0118DD84E0888B06
:102120006CE0CE0113DDCE0113DD82E0898B66E029
:10213000CE01DF91CF911F910F91FF90EF9006CDCF
:102140008F929F92AF92BF920F931F93CF93DF9383
:10215000CDB7DEB7A1970FB6F894DEBF0FBECDBFE7
:1021600019A2423008F44AE08E010F5D1F4F842E01
:10217000912CA12CB12CA50194010E94F01DE62FF9
:10218000B901CA0101501109EA3014F4E05D01C03F
:10219000E95CD801EC93232B242B252B61F7C80194
:1021A00032DFA1960FB6F894DEBF0FBECDBFDF9130
:1021B000CF911F910F91BF90AF909F908F900895F6
:1021C000CF92DF92EF92FF92CF93DF936C01990F42
:1021D000EE08FF08F7FE1EC0E0915306F09154068A
:1021E0000190F081E02D6DE283E596E01995EC0118
:1021F00066277727CB016C197D098E099F094AE074
:102200009FDF8C0F9D1FDF91CF91FF90EF90DF90AC
:10221000CF9008954AE0C701B601DF91CF91FF90BA
:10222000EF90DF90CF908CCF843008F083E09091D6
:102230006606891710F08FEF890FE82FF0E0ED5A4E
:10224000F94F6489606883E596E080CC1F93CF9353
:10225000DF9311E0180F2091B9041217A1F1C0917A
:10226000BA04D091BB042150B9F08F3F59F430E04B
:1022700040E050E06FEF7FEF80E090E00E94121EA0
:10228000B9010CC0812F90E0982F88270197622F09
:1022900070E00E94C91D02C060E070E0FE01409144
:1022A000B6045091B704CF018C1B9D0B8417950782
:1022B00040F44081469FC001479F900D11249193A7
:1022C000EECF1093B904DF91CF911F9108950F9332
:1022D0001F93CF93DF93CDB7DEB729970FB6F8944E
:1022E000DEBF0FBECDBF8091BA049091BB04892B95
:1022F00009F49FC03FDB0091C0041091C1042091FC
:10230000C2043091C304DC01CB01801B910BA20BF2
:10231000B30BC297A105B10568F3F8948091B60498
:102320009091B7049A838983E091BA04F091BB0439
:10233000DF011196808189879091B204E091C404F5
:10234000F091C5048091C604992309F42EC09081B0
:10235000982B98879081809589238F838F818C8398
:1023600088E08B8358856F8149853B812C818981E9
:102370009A81508347FD252F3A952083262F39F0E7
:10238000441F00C000006083000000C0F2CF38E0AE
:102390004D9160830000019761F7F093C504E093CD
:1023A000C40449873B832C8338C09081982B98873D
:1023B0009081809589238F838F818E8388E08D83A0
:1023C00058856F8149853D812E8189819A8150830D
:1023D00047FD252F00C000C0208300C000C000C002
:1023E00000C000C060830000262F3A9541F0441FD2
:1023F000000000C000C000C000C000C0E8CF38E04E
:102400004D9100C0608300C0019709F7F093C504A7
:10241000E093C40449873D832E839A83898378940B
:10242000A9DA6093C0047093C1048093C2049093AE
:10243000C30429960FB6F894DEBF0FBECDBFDF915F
:10244000CF911F910F910895E091B404F091B504DC
:102450008E179F07F0F53091B904332361F0639F25
:10246000B0011124672F439FA0011124452F239F02
:1024700090011124232F3091BF045091BC04E091AE
:10248000BA04F091BB04351308C0DC01AA0FBB1FCE
:102490008A0F9B1F8E0F9F1F0AC0880F991F880FDE
:1024A000991F8E0F9F1FFC01E30FF11D10823091C9
:1024B000BC04FC01E30FF11D60833091BD04FC01FD
:1024C000E30FF11D40833091BE04FC01E30FF11DC9
:1024D00020830895EF92FF921F93CF93DF931F9273
:1024E000CDB7DEB77C01162F2150203108F04EC049
:1024F00080E8E816F1040CF449C0A1EEEA16F104F4
:10250000ACF58091D7039091D803DC01ED91FC915B
:102510006E2D622B0190F081E02D498319958091F9
:10252000D7039091D803DC01ED91FC91612F6F7777
:102530000190F081E02D1995E894E4F84981B0EC20
:10254000EB16F10419F18091D7039091D803DC01C7
:10255000ED91FC91642F6F770190F081E02D0F9049
:10256000DF91CF911F91FF90EF901994C701885F81
:102570009109089758F4B70187ED93E00F90DF9128
:10258000CF911F91FF90EF900C940E080F90DF9168
:10259000CF911F91FF90EF900895CF93DF9300D0DC
:1025A00000D0CDB7DEB7789484B5826084BD84B5A1
:1025B000816084BD85B5826085BD85B5816085BD3E
:1025C00080916E00816080936E00109281008091F6
:1025D000810082608093810080918100816080937E
:1025E0008100809180008160809380008091B100A3
:1025F00084608093B1008091B00081608093B000CE
:10260000809191008260809391008091910081601F
:1026100080939100809190008160809390008091E0
:10262000A10082608093A1008091A10081608093CD
:10263000A1008091A00081608093A0008091210181
:10264000826080932101809121018160809321012A
:102650008091200181608093200180917A008460C4
:1026600080937A0080917A00826080937A008091D2
:102670007A00816080937A0080917A0080688093EC
:102680007A001092C10061E08CE117D962E083E525
:1026900096E0CADC83E892E0B6DC8091B80487FD5E
:1026A00006C061E00AD960E08091B804C4D811E0A6
:1026B0001093B30480910102C9DD09DE0E944F0826
:1026C000E091D703F091D803A089B18982E08C937F
:1026D000A485B5851C92A685B7858FE38C93108E53
:1026E000A489B58986E08C93A289B3898C91806195
:1026F0008C93A289B3898C9188608C93A289B389C9
:102700008C9180688C930288F389E02D80818F7D85
:1027100080831093D9031092DB031092DA03109296
:10272000E2031092E1031092E0031092DF038FEFB7
:102730009FEF9093E4038093E3039093E6038093E9
:10274000E50310926D041092EA031092E9031092CF
:10275000E8031092EB031092EC038091E703817081
:10276000826081608093E70387E199E09093CC03D6
:102770008093CB0383E499E09093D2038093D103B9
:1027800060E088E19AD860E089E197D8B0E8CB2E84
:10279000D12C13E0A12EB12C00E6402E0AEE502ED3
:1027A000612C712C8AE0282E312C9BEF892E9924E4
:1027B0009A942091D9032E83213108F0C3C18091CE
:1027C000D7039091D803DC01ED91FC910480F58151
:1027D000E02D1995892B09F4B5C18091D70390910B
:1027E000D803DC01ED91FC910680F781E02D19956D
:1027F0008C018B7F893F09F4A5C12091E1033091C1
:10280000E2032115310509F0AFC00093DC03F0901D
:10281000DA038F2D0E9429080E943B08882361F06B
:1028200007FD0AC0F092DC030093DD03E1E0F0E075
:10283000F093E203E093E1031091DC03812F0E9407
:102840002908813F910509F45FC074F5803B91052B
:1028500009F461C06CF48039910509F45CC0803AD8
:10286000910509F458C08038910509F0DBC053C0C8
:10287000803D910509F448C02CF4803C910509F491
:1028800043C0D0C0803E910509F445C0803F91050A
:1028900009F0C8C0D092E003C092DF031092DA03BF
:1028A00020EF2093ED033BC0883F9105B9F044F43D
:1028B000833F910549F17CF1863F910579F0B2C0E3
:1028C0008A3F91050CF4AEC08D3F91053CF09C0110
:1028D0002E5F31092230310508F0A4C09093EA033D
:1028E0008093E9031092E8031092EB031092EC033B
:1028F00081E080936D041092E2031092E103109244
:10290000E0031092DF03F4C022E030E03093E003F4
:102910002093DF0304C0B092E003A092DF03209174
:10292000E1033091E2034091DF035091E003415015
:1029300051092417350708F4D4C09093EA03809313
:10294000E9031F701F5F1093E8038091DD038093FC
:10295000EB031092EC031092E2031092E103109249
:10296000E0031092DF0321C007FF46C0C80199278A
:102970008D3F910554F48A3F91056CF4873F910592
:10298000C1F0883F9105C1F506C0AC014E5F510909
:102990004230510588F59093EA038093E903109241
:1029A000EB031092EC031092E80381E080936D0436
:1029B0009FC08091ED03803FA9F5C9010196F901FF
:1029C000ED54FC4F47EF42AF40EF50E05093EA0325
:1029D0004093E9038093EB039093EC031092E80398
:1029E00081E080936D041092E2031092E103109253
:1029F000E0031092DF0372C08091DC03F901ED5413
:102A0000FC4F803FD1F402AF0091DF031091E0034F
:102A1000C80101972817390708F463C02091DC0327
:102A2000203F69F41092E2031092E1031092E00358
:102A30001092DF031092DA0385C001A7E5CF822F41
:102A40002D830E9429087C019093EA038093E90377
:102A50000E943B082D81882331F0822F8F708F5F79
:102A60008093E80302C01092E8038091DD03809315
:102A7000EB030330110519F48091DE0301C080E0FF
:102A80008093EC031092E2031092E1031092E003B2
:102A90001092DF0381E080936D0450EBE516F104A2
:102AA000D1F06CF490E9E916F104A9F0A0EAEA1675
:102AB000F10489F0B0E8EB16F10481F40CC0E0ED0C
:102AC000EE16F10441F0F0EEEF16F10421F030ECD7
:102AD000E316F10419F42093DA030AC01092DA0322
:102AE00007C02F5F3F4F3093E2032093E1032AC0DA
:102AF0008091E9039091EA038039910529F480914E
:102B0000EC03882309F456C38091E9039091EA030A
:102B10009C01205831092136310508F050C320911D
:102B2000E8035E81251709F44AC3552309F447C316
:102B300019828091E703382F317080FD3BC23981C3
:102B4000311112C380910603882309F45EC08FB748
:102B5000F894E090B202F090B3020091B4021091A8
:102B6000B5028FBF80910002811143C08091FC02A9
:102B70009091FD02A091FE02B091FF02A801970181
:102B8000281B390B4A0B5B0B29833A834B835C83ED
:102B90002091150230911602220F331F032E000CD4
:102BA000440B550BC301B2010E94121E89819A8108
:102BB000AB81BC8182179307A407B50730F1E0927F
:102BC000FC02F092FD020093FE021093FF0280913E
:102BD000B6029091B70201968830910529F0909342
:102BE000B7028093B6020FC01092B7021092B602DD
:102BF0000AC0E092FC02F092FD020093FE021093E4
:102C0000FF02109200020E94B80887E796E00E9437
:102C1000990C811102C061E001C060E08CE10E946A
:102C20001B0C8FE896E00E94AF0D882361F0909115
:102C3000060381E089278093060321E04FE766E1E0
:102C400080EB90E047DC8BE696E00E94AF0D882396
:102C5000A1F028EB32E080E090E0F901E80FF91FE5
:102C60001082019688309105C1F7285F3F4F92E0AE
:102C7000283F390781F70E944F0883E995E00E94B9
:102C8000AF0D882321F080E090E00E94B4098FE925
:102C900095E00E94AF0D882321F081E090E00E9432
:102CA000B4098BEA95E00E94AF0D882321F082E001
:102CB00090E00E94B40987EB95E00E94AF0D882355
:102CC00021F083E090E00E94B40983EC95E00E943B
:102CD000AF0D882321F084E090E00E94B4098FECCE
:102CE00095E00E94AF0D882321F085E090E00E94DE
:102CF000B4098BED95E00E94AF0D882321F086E0AA
:102D000090E00E94B40987EE95E00E94AF0D882301
:102D100021F087E090E00E94B40983ED94E00E94E6
:102D2000AF0D882321F080E090E00E94A1098FED93
:102D300094E00E94AF0D882321F081E090E00E9492
:102D4000A1098BEE94E00E94AF0D882321F082E070
:102D500090E00E94A10987EF94E00E94AF0D8823C4
:102D600021F083E090E00E94A10983E095E00E94B9
:102D7000AF0D882321F084E090E00E94A1098FE04C
:102D800095E00E94AF0D882321F085E090E00E943D
:102D9000A1098BE195E00E94AF0D882321F086E028
:102DA00090E00E94A10987E295E00E94AF0D882380
:102DB00021F087E090E00E94A10988E10E94F30BD6
:102DC0008C019093050380930403809102039091FA
:102DD0000303892B09F0E3C00130110509F0DFC0BE
:102DE00080911702882319F010921702E0C089E140
:102DF0000E94F30B2091000330910103892B09F00D
:102E000062C021503109309301032093000383E80D
:102E100096E00E94990C2091FA023091FB028111F8
:102E20000BC02150310937FF63C0B092FB02A09262
:102E3000FA020E944F09B3C02115310571F4809147
:102E40001502909116020197181619060CF4BBC2D0
:102E50001093160200931502ECCF2130310579F45E
:102E60008091F8029091F90201978B3FAFEF9A079A
:102E70000CF0AEC29092F9028092F802DACF2230C2
:102E8000310581F4E0911302F0911402EE0FFF1F5F
:102E9000ED5FFD4F80819181019797FF5CC01182AA
:102EA0001082C7CF2330310521F680910102909125
:102EB00002020A978A3091050CF061C0309202023A
:102EC0002092010267C02F5F3F4F30930103209390
:102ED000000383E896E00E94990C2091FA02309159
:102EE000FB0281110FC02F5F3F4F2430310529F0C5
:102EF0003093FB022093FA029CCF1092FB021092B7
:102F0000FA0297CF2115310531F480911502909185
:102F10001602019658C22130310561F48091F80201
:102F20009091F9020196863091050CF451C285E02A
:102F300090E04EC222303105B1F4E0911302F091DD
:102F40001402EE0FFF1FED5FFD4F8081918101960E
:102F5000803891051CF4918380836BCF2FE730E09C
:102F60003183208366CF2330310509F062CF809111
:102F70000102909102020A96893C91052CF49093EB
:102F800002028093010206C048EC50E05093020216
:102F9000409301028091010259D999D94ACF809179
:102FA00004039091050390930303809302030E940E
:102FB000030BFFCB982F9E7F09F4C1CDA091E903AD
:102FC000B091EA03AD01405851094136510508F569
:102FD0002091E8035E81251719F031E0511130E0AE
:102FE000869590E08230910539F08330910541F06B
:102FF000019709F0A4CD06C0332309F4A0CD02C087
:1030000031119DCD4091EC036091EB03CD0162DA6B
:1030100096CDFD01E05FF109E031F10508F08FCDBB
:103020008827EE58FF4F8F4F19C6BD0187ED93E0FB
:103030000E940E0884CD0091EC0310E0102F0027B1
:103040008091EB03082B0138110510F000E810E027
:10305000E12CF12CE016F10609F471CD8091D70333
:103060009091D803DC01ED91FC91D701AD54BC4F98
:103070000190F081E02DDA966C911995BFEFEB1A73
:10308000FB0AE8CF1091EB038091D7039091D8030E
:10309000DC01ED91FC910190F081E02D63EF199539
:1030A0001F77612F70E08091D7039091D8030E9421
:1030B000120A45CD0091EC03B0E80B9F800111246A
:1030C0008091EB03082B8091D7039091D803DC010A
:1030D000ED91FC910190F081E02D62EF19958091C6
:1030E000D7039091D803DC01ED91FC91B8016F7783
:1030F00077270190F081E02D19958091D703909169
:10310000D803DC01ED91FC91B801660F672F661FB3
:10311000770B71956F7777270190F081E02D22C0B2
:103120008091EB038770B0E18B9FC0011124109157
:10313000EC031F70182B8091D7039091D803DC010A
:10314000ED91FC910190F081E02D61EF1995809156
:10315000D7039091D803DC01ED91FC910190F081AF
:10316000E02D612F1995EBCC83E596E00E94A80D28
:1031700080E05AD88091E9039091EA0321D881E058
:1031800053D86091EB0370E080E090E04AE00E9449
:10319000A0108091E9039091EA03823F910539F0F4
:1031A000883F910509F0CECC0E941709CBCC0E9434
:1031B0004309C8CCD092EA03C092E903A5CC813F71
:1031C000910569F5E091C303F091C4030CC08B3FF6
:1031D00091050CF0A7C0833F910509F0AFC0E091C5
:1031E000C703F091C8033097B9F08091EB031995AC
:1031F00013C0813B9105C4F580399105E1F4E0915C
:10320000B503F091B603309739F04091EC0360912B
:10321000EB038091E803199551E059838ACC823FF2
:1032200091050CF076C0803B910519F7E091B90348
:10323000F091BA03E8CF803A910529F4E091B70301
:10324000F091B803E0CF8038910551F5E091B303D8
:10325000F091B403309721F14091EC036091EB03BE
:103260008091E80319951CC0803D9105E1F03CF187
:10327000803E9105A1F5E091BF03F091C003309726
:1032800079F06091EC036F7780E8689FB0011124BA
:103290008091EB038F77682B70528091E80319952A
:1032A00031E0398346CCE091BD03F091BE03309705
:1032B000B9F36091EB038091E8031995F1CF803C5D
:1032C000910571F7E091BB03F091BC03309709F4CD
:1032D000A3CF6091EB038091E80319959DCF803FC8
:1032E0009105F1F6E091C103F091C2033097C1F26C
:1032F0006091EC0370E0762F66278091EB03682BDA
:103300006138710510F060E870E08DEE93E019957A
:10331000C7CF8A3F910509F05ACFE091CD03F091D4
:10332000CE0307C08C3F9105A9F5E091D103F09140
:10333000D203309709F470CF19956ECF833F910572
:10334000A4F4E091C503F091C603309709F4A8CF27
:103350008091EC038F77A0E88A9FC001112420910F
:10336000EB032F77822B19959BCF863F910549F46C
:10337000E091C903F091CA03309709F491CF1995F0
:103380008FCF883F910509F08BCFE091CB03F0916F
:10339000CC03F2CF8C3F91052CF4E091CF03F09158
:1033A000D003EACF8E3F910529F4E091D303F09149
:1033B000D403E2CF8F3F910509F072CFE091D5039E
:1033C000F091D603B6CF909316028093150231CDBB
:1033D0009093F9028093F8022CCD8BE592E09093C4
:1033E0009904809398048091BA049091BB0400974B
:1033F00009F0D1D48091B80487FD03C060E00C943B
:103400005D0C0895EF92FF920F931F93CF9310924C
:1034100019031092180388EE93E0A0E0B0E08093C7
:103420001A0390931B03A0931C03B0931D0383E323
:1034300092E0909317038093160385EC90E09093AD
:1034400023038093220384EC90E0909325038093E0
:10345000240390ECE92EF12CF0922703E09226034E
:1034600081EC90E0909329038093280382EC90E014
:1034700090932B0380932A0386EC90E090932D0386
:1034800080932C0310922F0310923003109231037B
:10349000109232038FE080939B0686E090E0909339
:1034A0009D0680939C0610929106109294060BE75D
:1034B00012E01093900600938F061092970686E113
:1034C00080939806C1E0C0939906C0939A06109223
:1034D0008506109288061093840600938306109246
:1034E0008B0687E180938C06C0938D06C0938E0671
:1034F0001092790610927C06109378060093770656
:1035000010927F068DE180938006C0938106C09360
:10351000820610926D061092700610936C0600934E
:103520006B06109273068AE180937406C093750649
:10353000C0937606109256061092550683E792E0E5
:10354000909354068093530688E0809357068FEF3C
:103550008093580687E08093590686E080935A0648
:1035600085E080935B0684E080935C0683E0809333
:103570005D0610925E0610925F0610926006109231
:1035800061061092620661E083E596E00E941410E5
:103590001092490610924C06109348060093470675
:1035A00010924F068EE180935006C0935106C0934F
:1035B000520610923D061092400610933C0600936E
:1035C0003B061092430680E280934406C093450672
:1035D000C0934606109231061092340610933006BE
:1035E00000932F061092370682E280933806C0932C
:1035F0003906C0933A0610922506109228061093B9
:1036000024060093230610922B0684E280932C0656
:10361000C0932D06C0932E061092190610921C0618
:10362000109318060093170610921F0686E28093E7
:103630002006C0932106C093220610920D06109218
:10364000100610930C0600930B061092130688E2E6
:1036500080931406C0931506C093160610920106B7
:1036600010920406109300060093FF0510920706BF
:103670008AE280930806C0930906C0930A06109256
:10368000F5051092F8051093F4050093F3051092D8
:10369000FB058CE28093FC05C093FD05C093FE05FD
:1036A00067E476E083E995E00E94EC096BE376E05D
:1036B0008FE995E00E94EC096FE276E08BEA95E0F5
:1036C0000E94EC0963E276E087EB95E00E94EC094A
:1036D00067E176E083EC95E00E94EC096BE076E030
:1036E0008FEC95E00E94EC096FEF75E08BED95E0B3
:1036F0000E94EC0963EF75E087EE95E00E94EC090B
:103700001092890510928C05109388050093870507
:1037100010928F058FE180939005C0939105C0931F
:10372000920510927D051092800510937C05009300
:103730007B051092830581E280938405C093850503
:10374000C093860510927105109274051093700550
:1037500000936F051092770583E280937805C093FC
:103760007905C0937A05109265051092680510934B
:1037700064050093630510926B0585E280936C05E8
:10378000C0936D05C0936E051092590510925C05AB
:10379000109358050093570510925F0587E28093B8
:1037A0006005C0936105C093620510924D051092AB
:1037B000500510934C0500934B051092530589E278
:1037C00080935405C0935505C0935605109241054A
:1037D000109244051093400500933F051092470551
:1037E0008BE280934805C0934905C0934A05109227
:1037F0003505109238051093340500933305109267
:103800003B058DE280933C05C0933D05C0933E058A
:1038100067E875E083ED94E00E94EC096BE775E0E2
:103820008FED94E00E94EC096FE675E08BEE94E07A
:103830000E94EC0963E675E087EF94E00E94EC09D2
:1038400067E575E083E095E00E94EC096BE475E0C4
:103850008FE095E00E94EC096FE375E08BE195E065
:103860000E94EC0963E375E087E295E00E94EC09B1
:1038700010929B0410929A0483E492E0909399042E
:103880008093980488E090E090939D0480939C043A
:1038900090939F0480939E049093A1048093A0042E
:1038A0009093A3048093A2041092AD041092A504F7
:1038B0001092A4041092A7041092A604C093AC0422
:1038C0008FEF9FEF9093AB048093AA049093A90489
:1038D0008093A804C093AE041092AF041092B10478
:1038E0001092B0041092B3041092B9041092C00464
:1038F0001092C1041092C2041092C304C093BF047A
:10390000C093BC041092BD0482E08093BE04C093B7
:10391000B204F092B704E092B60480EC90E0A6D135
:103920009093BB048093BA04009761F020ECDC0113
:103930001D922A95E9F780E490E09093B504809376
:10394000B40408C01092B7041092B6041092B504E3
:103950001092B40482E08093B8048091B304882369
:1039600041F061E082E00E945D0C60E082E00E9434
:103970001B0CE4E6F7E0E491F0E0EE0FFF1FE85BDC
:10398000F84F859194919093C5048093C404E4E02A
:10399000F7E0E491E093C6048BE592E090939904FC
:1039A000809398041092C70488E08093C8048093A1
:1039B000C9041092CA041092CB041092CD04109244
:1039C000CC041092D204109293041092920410929C
:1039D00095041092940410929704109296048FEF1D
:1039E00090E090938D0480938C0428EC30E0309329
:1039F0008F0420938E0430939104209390041092AE
:103A0000870410928604909389048093880410920E
:103A10008B0410928A049093810480938004109206
:103A200083041092820410928504109284041092F0
:103A30007B0410927A0410927D0410927C0490937F
:103A40007F0480937E0480E098EF90936F048093CE
:103A50006E0480EE9FEF909371048093700480EE6B
:103A600097E090937304809372048FEF97E09093A4
:103A70007504809374048FE190E0909377048093B1
:103A800076048FE198EF909379048093780486E12F
:103A900093E09093D8038093D7031092D9031092A8
:103AA000DA031092DB031092E0031092DF0310920E
:103AB000E2031092E1038FEF9FEF9093E403809372
:103AC000E3039093E6038093E50383E08093E703A9
:103AD0001092E8031092EA031092E9031092EB03AC
:103AE0001092EC0310926D0480E8EDEEF3E0DF013C
:103AF0001D928A95E9F71092B4031092B3031092C5
:103B0000B6031092B5031092B8031092B703109247
:103B1000BA031092B9031092BC031092BB03109227
:103B2000BE031092BD031092C0031092BF03109207
:103B3000C2031092C1031092C4031092C3031092E7
:103B4000C6031092C5031092C8031092C7031092C7
:103B5000CA031092C9031092CC031092CB031092A7
:103B6000CE031092CD031092D0031092CF03109287
:103B7000D2031092D1031092D4031092D303109267
:103B8000D6031092D503CF911F910F91FF90EF9024
:103B90000895AA1BBB1B51E107C0AA1FBB1FA61794
:103BA000B70710F0A61BB70B881F991F5A95A9F7E6
:103BB00080959095BC01CD01089597FB072E16F4D2
:103BC000009406D077FD08D0E4DF07FC05D03EF472
:103BD000909581959F4F0895709561957F4F0895B9
:103BE000A1E21A2EAA1BBB1BFD010DC0AA1FBB1F01
:103BF000EE1FFF1FA217B307E407F50720F0A21B73
:103C0000B30BE40BF50B661F771F881F991F1A94DF
:103C100069F760957095809590959B01AC01BD0109
:103C2000CF010895052E97FB16F400940FD057FD91
:103C300005D0D6DF07FC02D046F408C05095409569
:103C4000309521953F4F4F4F5F4F08959095809548
:103C5000709561957F4F8F4F9F4F0895EE0FFF1F17
:103C6000881F8BBF0790F691E02D1994CF93DF93B7
:103C70008230910510F482E090E0E091A006F0918E
:103C8000A10620E030E0C0E0D0E0309711F14081A3
:103C9000518148175907C0F04817590761F48281CC
:103CA0009381209719F09B838A832BC09093A10660
:103CB0008093A00626C02115310519F0421753073D
:103CC00018F49A01BE01DF01EF010280F381E02DBB
:103CD000DCCF2115310509F1281B390B24303105C2
:103CE00090F412968D919C9113976115710521F0B6
:103CF000FB019383828304C09093A1068093A00666
:103D0000FD01329644C0FD01E20FF31F81939193B0
:103D1000225031092D933C933AC020919E06309158
:103D20009F06232B41F420911B0230911C023093FB
:103D30009F0620939E062091190230911A022115A8
:103D4000310541F42DB73EB740911D0250911E023E
:103D5000241B350BE0919E06F0919F06E217F307B6
:103D6000A0F42E1B3F0B2817390778F0AC014E5FEB
:103D70005F4F2417350748F04E0F5F1F50939F0683
:103D800040939E068193919302C0E0E0F0E0CF0162
:103D9000DF91CF9108950F931F93CF93DF930097F7
:103DA00009F48CC0FC013297138212820091A006A4
:103DB0001091A1060115110581F420813181820F36
:103DC000931F20919E0630919F062817390779F599
:103DD000F0939F06E0939E0671C0D80140E050E04A
:103DE000AE17BF0750F412962D913C911397AD0179
:103DF0002115310509F1D901F3CF9D01DA01338392
:103E0000228360817181860F971F8217930769F45F
:103E1000EC0128813981260F371F2E5F3F4F3183F8
:103E200020838A819B8193838283452B29F4F0939D
:103E3000A106E093A00642C01396FC93EE9312975E
:103E4000ED01499159919E01240F351FE217F307A7
:103E500071F480819181840F951F029611969C9335
:103E60008E938281938113969C938E931297E0E0B8
:103E7000F0E0D80112968D919C911397009719F05C
:103E8000F8018C01F6CF8D919C9198012E5F3F4FE8
:103E9000820F931F20919E0630919F0628173907A5
:103EA00069F4309729F41092A1061092A00602C07E
:103EB0001382128210939F0600939E06DF91CF918A
:103EC0001F910F91089581E090E0F89400C013E0F5
:103ED000C5EDD3E000E005C0802FFE01BFDE2196D6
:103EE000011DC63DD10780E00807B1F7F894FFCF68
:103EF00001140064006400640064006400640064F1
:103F00000064000700780001010000A20680002B79
:103F1000002A002900280027002600250024000090
:103F20000000009C0A190A660A440A580AE20A00BC
:103F3000000000A705190A920BD70471045B0488DE
:103F40000426040804910B00000000A705190A7D4F
:103F500006D70471045B0488042604CE07910B0085
:103F6000000000A10D190A00000000990C000000DB
:103F700000920B67696E54726F6E69637320313003
:103F8000310042504D004F43544156450056454C78
:103F90004F43495459004272696768746E65737380
:023FA00000001F
:020000023000CC
:10E000000D9489F10D94B2F10D94B2F10D94B2F129
:10E010000D94B2F10D94B2F10D94B2F10D94B2F1F0
:10E020000D94B2F10D94B2F10D94B2F10D94B2F1E0
:10E030000D94B2F10D94B2F10D94B2F10D94B2F1D0
:10E040000D94B2F10D94B2F10D94B2F10D94B2F1C0
:10E050000D94B2F10D94B2F10D94B2F10D94B2F1B0
:10E060000D94B2F10D94B2F10D94B2F10D94B2F1A0
:10E070000D94B2F10D94B2F10D94B2F10D94B2F190
:10E080000D94B2F10D94B2F10D94B2F10D94B2F180
:10E090000D94B2F10D94B2F10D94B2F10D94B2F170
:10E0A0000D94B2F10D94B2F10D94B2F10D94B2F160
:10E0B0000D94B2F10D94B2F10D94B2F10D94B2F150
:10E0C0000D94B2F10D94B2F10D94B2F10D94B2F140
:10E0D0000D94B2F10D94B2F10D94B2F10D94B2F130
:10E0E0000D94B2F141546D656761323536300041AF
:10E0F000726475696E6F206578706C6F72657220DE
:10E1000073746B3530305632206279204D4C530099
:10E11000426F6F746C6F616465723E004875683F52
:10E1200000436F6D70696C6564206F6E203D200048
:10E130004350552054797065202020203D20005FF9
:10E140005F4156525F415243485F5F3D2000415658
:10E1500052204C696243205665723D20004743437C
:10E160002056657273696F6E203D20004350552024
:10E1700049442020202020203D20004C6F7720663D
:10E18000757365202020203D20004869676820665F
:10E190007573652020203D200045787420667573D6
:10E1A00065202020203D20004C6F636B2066757336
:10E1B000652020203D20004D617220203720323024
:10E1C000313300312E362E3800342E332E350056A2
:10E1D00023202020414444522020206F7020636F70
:10E1E00064652020202020696E73747275637469E1
:10E1F0006F6E2061646472202020496E74657272B3
:10E20000757074006E6F20766563746F7200726A49
:10E210006D702020006A6D70200057686174207056
:10E220006F72743A00506F7274206E6F7420737541
:10E2300070706F72746564004D7573742062652030
:10E2400061206C6574746572002000577269747483
:10E25000696E672045450052656164696E672045B7
:10E26000450045452065727220636E743D00504F35
:10E27000525400303D5A65726F2061646472003FF1
:10E280003D43505520737461747300403D454550C3
:10E29000524F4D207465737400423D426C696E6B41
:10E2A000204C454400453D44756D70204545505215
:10E2B0004F4D00463D44756D7020464C415348001B
:10E2C000483D48656C70004C3D4C69737420492F83
:10E2D0004F20506F72747300513D51756974005234
:10E2E0003D44756D702052414D00563D73686F7707
:10E2F00020696E7465727275707420566563746FF0
:10E30000727300593D506F727420626C696E6B00BD
:10E310002A0011241FBECFEFD1E2DEBFCDBF01E046
:10E320000CBF12E0A0E0B2E0EEE1FDEF03E00BBFB6
:10E3300002C007900D92A030B107D9F712E0A0E01B
:10E34000B2E001C01D92AE30B107E1F70F9460F367
:10E350000D948DFE01E20EBF0FEF0DBF11241FBE05
:10E360000D9460F30D9400F020E030E040ED57E0B4
:10E3700005C0FA013197F1F72F5F3F4F2817390792
:10E38000C0F308959C01260F311DC901A0E0B0E043
:10E390002F5F3F4FABBFFC018791882361F08093D3
:10E3A000C6008091C00086FFFCCF8091C0008064D1
:10E3B0008093C000EACF08958DE08093C6008091DD
:10E3C000C00086FFFCCF8091C00080648093C000B5
:10E3D0008AE08093C6008091C00086FFFCCF8091C8
:10E3E000C00080648093C00008950F94C2F10F9420
:10E3F000DCF10895FC019081992359F09093C600B7
:10E400008091C00086FFFCCF8091C0008064809323
:10E41000C0003196992379F70895282F982F929567
:10E420009F70892F805D8A3308F0895F8093C600D2
:10E430008091C00086FFFCCF8091C00080648093F3
:10E44000C000822F8F70982F905D9A3308F0995FEB
:10E450009093C6008091C00086FFFCCF8091C000E1
:10E4600080648093C00008959C01FB01853691056E
:10E470001CF46330710594F0C90164E670E00F94F8
:10E480002EFE605D7F4F6093C6008091C00086FFC6
:10E49000FCCF8091C00080648093C0002B30310598
:10E4A00014F43297B4F0C90164E670E00F942EFEC4
:10E4B0006AE070E00F942EFE605D7F4F6093C600AF
:10E4C0008091C00086FFFCCF8091C0008064809363
:10E4D000C000C9016AE070E00F942EFEC0968093E0
:10E4E000C6008091C00086FFFCCF8091C000806490
:10E4F0008093C00008951F93182F8EE692EE60E07F
:10E500000F94C2F11093C6008091C00086FFFCCF2B
:10E510008091C00080648093C0000F94DCF11F9153
:10E5200008952F923F924F925F926F927F928F92B7
:10E530009F92AF92BF92CF92DF92EF92FF920F9392
:10E540001F93DF93CF93CDB7DEB762970FB6F894E2
:10E55000DEBF0FBECDBF382E622ECA01DB015C01CB
:10E560006D01772420E2222E2E010894411C511CBB
:10E570008BC081E0A81680E0B80681E0C80680E084
:10E58000D80628F0C601AA27BB270F940DF2BB2797
:10E59000AD2D9C2D8B2D0F940DF28A2D0F940DF225
:10E5A0002092C6008091C00086FFFCCF8091C00001
:10E5B00080648093C0009DE29093C6008091C0006B
:10E5C00086FFFCCF8091C00080648093C0002092C1
:10E5D000C6008091C00086FFFCCF8091C00080649F
:10E5E0008093C00019828601750188249924A1E0D6
:10E5F0003A1651F03A1620F0B2E03B1661F409C029
:10E600000BBFF701779007C0C7010F9477FE782EF4
:10E6100002C0F7017080872D0F940DF22092C60082
:10E620008091C00086FFFCCF8091C0008064809301
:10E63000C000872D8052F401EF70F0708F3520F408
:10E64000E40DF51D708204C0E40DF51D8EE280839B
:10E650000894E11CF11C011D111D0894811C911CE2
:10E6600090E18916910409F0C2CF80E190E0A0E02A
:10E67000B0E0A80EB91ECA1EDB1E198AC2010F9493
:10E68000FAF10F94DCF16A94662009F072CF629679
:10E690000FB6F894DEBF0FBECDBFCF91DF911F91B3
:10E6A0000F91FF90EF90DF90CF90BF90AF909F9031
:10E6B0008F907F906F905F904F903F902F90089534
:10E6C0002F923F924F925F926F927F928F929F9282
:10E6D000AF92BF92CF92DF92EF92FF920F931F9370
:10E6E000DF93CF93CDB7DEB7CD53D1400FB6F894BB
:10E6F000DEBF0FBECDBF01E20EBF0FEF0DBF94B75F
:10E70000F894A89514BE80916000886180936000A1
:10E7100010926000789493FF05C0E0910002F091A0
:10E7200001021995279A2F9A8091C00082608093E8
:10E73000C00080E18093C40088E18093C1000000A4
:10E74000EE24FF24870144E0A42EB12CCC24DD2448
:10E7500024C0C5010197F1F70894E11CF11C011DCB
:10E76000111D21E2E2162EE4F20620E0020720E06D
:10E77000120718F031E0C32ED12CC801B70127ECE5
:10E780003BE140E050E00F9441FE611571058105C9
:10E79000910519F485B1805885B98091C00087FD35
:10E7A00003C0C114D104A9F2A6014F5F5F4FC25E3E
:10E7B000DE4F59834883CE51D140C25EDE4F8881FF
:10E7C0009981CE51D140019711F00D9410FEC05D9A
:10E7D000DE4F19821882C053D14060E0C15DDE4F28
:10E7E0001882CF52D14088249924C35DDE4F19820C
:10E7F0001882CD52D140C05EDE4F188219821A8233
:10E800001B82C052D140CE5CDE4F188219821A8220
:10E810001B82C253D140EE24FF2487010BBFF701B6
:10E8200007911691C45CDE4F19830883CC53D14005
:10E830000D940BFEC25EDE4F28813981CE51D1404E
:10E840002130310509F52091C600C25EDE4F1982E4
:10E850001882CE51D14022C02F5F3F4F4F4F5F4FA4
:10E86000213082E138078AE7480780E0580780F0C6
:10E87000C45CDE4FE881F981CC53D140EF5FFF4F9C
:10E8800019F0EE27FF27099420E030E040E050E047
:10E890008091C00087FFE0CF2091C600C35DDE4FAE
:10E8A00048815981CD52D1404F5F5F4FC35DDE4FEC
:10E8B00059834883CD52D140213209F063C64A3092
:10E8C000510508F05FC60894811C911C53E0851621
:10E8D000910409F059C600E010E018C081E280936D
:10E8E000C6008091C00086FFFCCF8091C00080648C
:10E8F0008093C0002F5F3F4F2931310579F70F9486
:10E90000DCF10F5F1F4F0530110519F020E030E0FA
:10E91000E5CF10920A0210920B0210920C02109294
:10E920000D02109206021092070210920802109235
:10E930000902109202021092030210920402109235
:10E9400005028FEE90EE60E00F94F5F180E191EE1C
:10E9500060E00F94C2F18091C00087FFFCCF9091DE
:10E96000C600903608F09F759032B8F09093C600BC
:10E970008091C00086FFFCCF8091C00080648093AE
:10E98000C000A0E2A093C6008091C00086FFFCCF2B
:10E990008091C00080648093C000983409F4D7C18E
:10E9A0009934B8F4923409F459C1933458F490333B
:10E9B00019F1903308F4E3C59F33A1F1903409F0C5
:10E9C000DEC5BDC0953409F470C1963409F0D7C5D1
:10E9D00098C1923509F42BC2933538F49C3409F46C
:10E9E000F5C1913509F0CBC518C2963509F445C279
:10E9F000993509F0C4C567C483E792EE62E00F94CD
:10EA0000F5F110920602109207021092080210927D
:10EA1000090210920A0210920B0210920C0210923C
:10EA20000D0213C18FE792EE62E00F94F5F18FEEC5
:10EA300090EE60E00F94F5F181E291EE60E00F94CA
:10EA4000C2F187EB91EE60E00F94F5F180E391EE77
:10EA500060E00F94C2F184EE90EE60E00F94F5F167
:10EA60008FE391EE60E00F94C2F186E090E061E008
:10EA700070E00F9434F20F94DCF18DE591EE60E0DC
:10EA80000F94C2F189EC91EE60E00F94F5F18EE401
:10EA900091EE60E00F94C2F183EC91EE60E00F9490
:10EAA000F5F18CE691EE60E00F94C2F18EE10F94E7
:10EAB0000DF288E90F940DF281E00F940DF20F949E
:10EAC000DCF18BE791EE60E00F94C2F119E0E0E039
:10EAD000F0E010935700E4918E2F0F940DF20F94F5
:10EAE000DCF18AE891EE60E00F94C2F1E3E0F0E03F
:10EAF00010935700E4918E2F0F940DF20F94DCF1D8
:10EB000089E991EE60E00F94C2F1E2E0F0E0109349
:10EB10005700E4918E2F0F940DF20F94DCF188EAE8
:10EB200091EE60E00F94C2F1E1E0F0E01093570045
:10EB30001491812F0F940DF20F94DCF107CF8BE825
:10EB400092EE62E00F94F5F18BE492EE60E00F94A8
:10EB5000F5F10F94DCF100E010E019C0C8016F2D51
:10EB60000F947FFEFF2031F489E492EE60E00F9471
:10EB7000C2F10BC0F092C6008091C00086FFFCCFAE
:10EB80008091C00080648093C0000F5F1F4FC80158
:10EB900081519F41A0E0B0E0ABBFFC01F790BAE229
:10EBA000FB1621F0E2E000301E07C1F60F94DCF105
:10EBB0000F94DCF187E592EE60E00F94F5F10F948D
:10EBC000DCF1CC24DD2400E010E01EC0C8010F946D
:10EBD00077FEF82E882331F489E492EE60E00F94FA
:10EBE000C2F10BC08093C6008091C00086FFFCCFAD
:10EBF0008091C00080648093C000FE1419F00894D6
:10EC0000C11CD11C0F5F1F4FC80181519F41A0E063
:10EC1000B0E0ABBFFC01E790FAE2EF1621F022E092
:10EC20000030120799F60F94DCF10F94DCF182E6C4
:10EC300092EE60E00F94C2F1C60161E070E00F94C3
:10EC400034F20F94DCF10F94DCF110920202109276
:10EC50000302109204021092050278CE89E992EE26
:10EC600062E00F94F5F1279A2F9A16C02F9880E052
:10EC700090E0E0EDF7E03197F1F7019684369105E9
:10EC8000C1F72F9A80E090E0E0EDF7E03197F1F7DF
:10EC9000019684369105C1F78091C00087FFE6CFC9
:10ECA0008091C00087FFFCCF64C485EA92EE62E0E9
:10ECB0000F94F5F140910202509103026091040219
:10ECC0007091050281E020E10F9491F2809102029F
:10ECD00090910302A0910402B091050280509F4FD1
:10ECE000AF4FBF4F8093020290930302A0930402A0
:10ECF000B093050280509041A040B04008F426CE69
:10ED0000A4CF83EB92EE62E00F94F5F140910602FE
:10ED100050910702609108027091090280E020E1A1
:10ED20000F9491F28091060290910702A09108023F
:10ED3000B091090280509F4FAF4FBF4F80930602A2
:10ED400090930702A0930802B0930902FFCD80ECD4
:10ED500092EE62E00F94F5F183E792EE60E00F949B
:10ED6000F5F18FE792EE60E00F94F5F18BE892EE0B
:10ED700060E00F94F5F189E992EE60E00F94F5F10F
:10ED800085EA92EE60E00F94F5F183EB92EE60E09D
:10ED90000F94F5F180EC92EE60E00F94F5F187ECC2
:10EDA00092EE60E00F94F5F188ED92EE60E00F9442
:10EDB000F5F18FED92EE60E00F94F5F18AEE92EEB0
:10EDC00060E00F94F5F183E093EEBDCD87EC92EE19
:10EDD00062E00F94F5F181E40F947BF282E40F94EA
:10EDE0007BF283E40F947BF284E40F947BF285E45E
:10EDF0000F947BF286E40F947BF287E40F947BF20E
:10EE000088E40F947BF28AE40F947BF28BE40F94F6
:10EE10007BF28CE40F947BF299CD88ED92EE62E068
:10EE20000F94F5F1772473948824992409C48FED05
:10EE300092EE62E00F94F5F140910A0250910B02BC
:10EE400060910C0270910D0282E020E10F9491F22A
:10EE500080910A0290910B02A0910C02B0910D02D8
:10EE600080509F4FAF4FBF4F80930A0290930B0289
:10EE7000A0930C02B0930D0269CD8AEE92EE62E08F
:10EE80000F94F5F184EE90EE60E00F94F5F18FECC5
:10EE900091EE60E00F94F5F1662477244301CC5D98
:10EEA000DE4F19821882C452D140D401C301B695F5
:10EEB000A79597958795CA5DDE4F88839983AA8326
:10EEC000BB83C652D140CC5DDE4FA881B981C4520C
:10EED000D1401196CC5DDE4FB983A883C452D14096
:10EEE000CD0162E070E00F9434F2B0E2B093C6005E
:10EEF0008091C00086FFFCCF8091C0008064809329
:10EF0000C000EDE2E093C6008091C00086FFFCCF18
:10EF10008091C00080648093C000F0E2F093C6004E
:10EF20008091C00086FFFCCF8091C00080648093F8
:10EF3000C000CA5DDE4FE880F9800A811B81C6529D
:10EF4000D140BB27A12F902F8F2D0F940DF2CA5DBA
:10EF5000DE4F8881C652D1400F940DF2B0E2FB2EF5
:10EF6000F092C6008091C00086FFFCCF8091C00067
:10EF700080648093C0000DE30093C6008091C000C0
:10EF800086FFFCCF8091C00080648093C00010E2B7
:10EF90001093C6008091C00086FFFCCF8091C00016
:10EFA00080648093C0008BBEF3012791C65DDE4F65
:10EFB0002883CA52D140A22EBB24CC24DD2408943D
:10EFC000611C711C811C911C8BBEF3018791282E42
:10EFD0003324442455240894611C711C811C911C09
:10EFE0008BBEF3013791C55DDE4F3883CB52D140E4
:10EFF0000894611C711C811C911C8BBEF30147910C
:10F00000C45DDE4F4883CC52D140ADEFEA2EAFEF66
:10F01000FA2EAFEF0A2FAFEF1A2F6E0C7F1C801E57
:10F02000911E142D032DF22CEE24EA0CFB1C0C1D5A
:10F030001D1D0F940DF220E22093C6008091C000A8
:10F0400086FFFCCF8091C00080648093C000C65DC5
:10F05000DE4F8881CA52D1400F940DF230E23093D6
:10F06000C6008091C00086FFFCCF8091C000806404
:10F070008093C000C45DDE4F8881CC52D1400F9494
:10F080000DF240E24093C6008091C00086FFFCCFA5
:10F090008091C00080648093C000C55DDE4F888190
:10F0A000CB52D1400F940DF250E25093C6008091A4
:10F0B000C00086FFFCCF8091C00080648093C000B8
:10F0C0008FEFE8168FEFF80680E0080780E018075A
:10F0D00031F484E092EE60E00F94C2F1DFC0D80119
:10F0E000C7018070907CA070B0708050904CA040A0
:10F0F000B040D1F52FEF3FE340E050E0E222F322B1
:10F1000004231523CA5DDE4FA880B980CA80DB8046
:10F11000C652D140AE0CBF1CC01ED11EAA0CBB1CD7
:10F12000CC1CDD1C8EE092EE60E00F94C2F1BB2798
:10F13000A12F902F8F2D0F940DF28E2D0F940DF285
:10F1400030E23093C6008091C00086FFFCCF8091F2
:10F15000C00080648093C0004EE34093C60080915D
:10F16000C00086FFFCCF87C08EE09EEFA0E0B0E03D
:10F17000E822F9220A231B239CE0E91694E9F90608
:10F1800090E0090790E0190709F088C0C45DDE4FE0
:10F19000A881CC52D140EA2EFF2400E010E0102FCD
:10F1A0000F2DFE2CEE24C55DDE4FB881CB52D14031
:10F1B000EB0EF11C011D111DD601C501817090706F
:10F1C000A070B070DC0199278827E80EF91E0A1F8D
:10F1D0001B1F20EF30E040E050E0A222B322C42207
:10F1E000D52241E1AA0CBB1CCC1CDD1C4A95D1F7F1
:10F1F000EA0CFB1C0C1D1D1D81E090E0A0E0B0E0BE
:10F20000282239224A225B2235E1220C331C441C7D
:10F21000551C3A95D1F7E20CF31C041D151D57013E
:10F220006801AA0CBB1CCC1CDD1C85E192EE60E0E1
:10F230000F94C2F1C801AA27BB270F940DF2BB2778
:10F24000A12F902F8F2D0F940DF28E2D0F940DF274
:10F2500090E29093C6008091C00086FFFCCF809121
:10F26000C00080648093C000AEE3A093C60080918C
:10F27000C00086FFFCCF8091C00080648093C000F6
:10F28000C601AA27BB270F940DF2BB27AD2D9C2DDD
:10F290008B2D0F940DF28A2D0F940DF20F94DCF14B
:10F2A000CC5DDE4FE881F981C452D140F99709F471
:10F2B0004DCBF4E0EF2EF12C012D112D6E0C7F1CA7
:10F2C000801E911EF2CD83E093EE62E00F94F5F183
:10F2D0008AE192EE60E00F94C2F18091C00087FF56
:10F2E000FCCF1091C6001F751093C6008091C0001E
:10F2F00086FFFCCF8091C00080648093C0000F9493
:10F30000DCF1812F81548A3108F036C1163409F4BA
:10F3100095C0173490F4133409F44EC0143430F40B
:10F320001134F1F0123409F01DC130C0143409F465
:10F3300059C0153409F016C16BC01A3409F4C4C0A1
:10F340001B3438F4173409F48FC0183409F00AC19B
:10F35000A1C01B3409F4D2C01C3409F003C1E8C0B9
:10F360008FEF81B90DC082B1809582B980E090E0C5
:10F37000E0EDF7E03197F1F70196883C9105C1F790
:10F380008091C00087FFEFCF12B8EFC08FEF84B934
:10F390000DC085B1809585B980E090E0E0EDF7E0A3
:10F3A0003197F1F70196883C9105C1F78091C00033
:10F3B00087FFEFCF15B8D9C08FEF87B90DC088B1DF
:10F3C000809588B980E090E0E0EDF7E03197F1F7C3
:10F3D0000196883C9105C1F78091C00087FFEFCF6F
:10F3E00018B8C3C08FEF8AB90DC08BB180958BB9A7
:10F3F00080E090E0E0EDF7E03197F1F70196883C8E
:10F400009105C1F78091C00087FFEFCF1BB8ADC059
:10F410008FEF8DB90DC08EB180958EB980E090E0F0
:10F42000E0EDF7E03197F1F70196883C9105C1F7DF
:10F430008091C00087FFEFCF1EB897C08FEF80BBD1
:10F440000DC081B3809581BB80E090E0E0EDF7E0F6
:10F450003197F1F70196883C9105C1F78091C00082
:10F4600087FFEFCF11BA81C08FEF83BB0DC084B38C
:10F47000809584BB80E090E0E0EDF7E03197F1F714
:10F480000196883C9105C1F78091C00087FFEFCFBE
:10F4900014BA6BC08FEF809301010FC080910201FD
:10F4A00080958093020180E090E0E0EDF7E03197F5
:10F4B000F1F70196883C9105C1F78091C00087FF64
:10F4C000EDCF1092020151C08FEF809304010FC065
:10F4D0008091050180958093050180E090E0E0ED4A
:10F4E000F7E03197F1F70196883C9105C1F78091DB
:10F4F000C00087FFEDCF1092050137C08FEF8093DA
:10F5000007010FC08091080180958093080180E079
:10F5100090E0E0EDF7E03197F1F70196883C910536
:10F52000C1F78091C00087FFEDCF109208011DC088
:10F530008FEF80930A010FC080910B01809580931B
:10F540000B0180E090E0E0EDF7E03197F1F70196F4
:10F55000883C9105C1F78091C00087FFEDCF1092E4
:10F560000B0103C085E292EEEEC98091C00087FFD7
:10F57000FCCF8091C600EAC988E392EEE4C98CE131
:10F5800091EEE1C988249924933011F1943028F444
:10F59000913089F09230B8F408C0953061F195301F
:10F5A000F0F0963009F048C043C02B3109F042C951
:10F5B00091E06BE13FC96227C15DDE4F2883CF52E6
:10F5C000D14092E037C9B22FA0E0622793E032C960
:10F5D000822F90E0A82BB92B622794E02BC92E3004
:10F5E00009F039C3622795E0C05DDE4F19821882A9
:10F5F000C053D1401FC9E1E0F0E0EC0FFD1FC05D3A
:10F60000DE4F08811981C053D140E00FF11F2083E4
:10F610000F5F1F4FC05DDE4F19830883C053D14079
:10F6200062270A171B0709F005C9D80196E002C92D
:10F63000261709F010C303C0973009F0FBC87724E0
:10F640009981933109F412C19431C8F4963009F4C8
:10F65000D8C0973050F4923009F406C1933009F4C1
:10F660006DC0913009F059C253C0913109F477C08F
:10F67000923108F0BBC0903109F04FC2F5C098310B
:10F6800009F487C0993150F4953109F4EFC09531F0
:10F6900008F4C6C1963109F040C2C2C19A3109F4DA
:10F6A0006CC09A3108F491C09B3109F45BC09D3164
:10F6B00009F033C29D81903359F48F81882311F46E
:10F6C0009EE11CC0813011F091E018C098E916C08D
:10F6D000892F807591F0903539F4E0E0F0E089E011
:10F6E0008093570094910AC0983539F4E3E0F0E034
:10F6F00089E080935700949101C090E01A821B82A8
:10F700008D818C831D829E831F8227E030E009C299
:10F710001A8288E08B8381E48C8386E58D8382E581
:10F720008E8389E48F8383E5888780E589878FE5E9
:10F730008A8782E38B872BE030E0F3C18A818139AD
:10F7400041F0823941F0803911F48FE005C080E04A
:10F7500003C082E001C08AE01A828B8344C0772410
:10F76000739482C08D81882311F48EE12CC0813086
:10F7700011F081E028C088E926C01A82E1E0F0E0BB
:10F7800089E08093570084918B831C8224E030E0D1
:10F79000C8C18B81803589F48C81883039F4E2E0EE
:10F7A000F0E089E08093570084910DC0E0E0F0E044
:10F7B00089E080935700849106C0E3E0F0E089E09F
:10F7C0008093570084911A82DFCF8D81836C99E0FA
:10F7D000E1E0F0E0082E90935700E89507B600FCB2
:10F7E000FDCF1A821B8223E030E09BC180EC8A832C
:10F7F000CE5CDE4F188219821A821B82C253D1401E
:10F800008EC18A8190E0A0E0B0E0582F44273327D2
:10F8100022278B8190E0A0E0B0E0DC0199278827C7
:10F82000282B392B4A2B5B2B8D8190E0A0E0B0E098
:10F83000282B392B4A2B5B2B8C8190E0A0E0B0E089
:10F84000BA2FA92F982F8827282B392B4A2B5B2BCF
:10F85000220F331F441F551FC05EDE4F288339839C
:10F860004A835B83C052D1401A8259C13A81C95C34
:10F87000DE4F3883C753D140CA5CDE4F1882C6536F
:10F88000D1408B81C82EDD24CA5CDE4F488159816E
:10F89000C653D140C42AD52A933109F082C0CE5C28
:10F8A000DE4F88819981AA81BB81C253D1408050AB
:10F8B000904CA340B04030F583E0CE5CDE4FE88052
:10F8C000F9800A811B81C253D140F70100935B008C
:10F8D00080935700E89507B600FCFDCFCE5CDE4F65
:10F8E000088119812A813B81C253D14000501F4FAA
:10F8F0002F4F3F4FCE5CDE4F088319832A833B8313
:10F90000C253D140C05EDE4F488159816A817B81FC
:10F91000C052D140DE011B9631E08C9111962C91A2
:10F9200011971296C75CDE4F2883C953D140C85C3B
:10F93000DE4F1882C853D14090E0C85CDE4FE881AA
:10F94000F981C853D1408E2B9F2B0C01FA01609393
:10F950005B0030935700E89511244E5F5F4F6F4F67
:10F960007F4F0EEFE02E0FEFF02ECE0CDF1CC114F8
:10F97000D10499F685E0C05EDE4F088119812A81A5
:10F980003B81C052D140F80120935B008093570027
:10F99000E89507B600FCFDCF81E180935700E8951C
:10F9A00035C0C05EDE4F88819981AA81BB81C0527B
:10F9B000D140B695A795979587957C018601ABE0D8
:10F9C000AA2EB12CAC0EBD1E0BC0D5016D915D01F0
:10F9D000C7010F947FFE0894E11CF11C01501040F8
:10F9E0000115110591F7A60160E070E0440F551F65
:10F9F000661F771FC05EDE4FE880F9800A811B8199
:10FA0000C052D1404E0D5F1D601F711F1A82C05E33
:10FA1000DE4F488359836A837B83C052D1407FC0C5
:10FA2000FA80C55CDE4FF882CB53D140C65CDE4F16
:10FA30001882CA53D1408B81C82EDD24C65CDE4FAC
:10FA400008811981CA53D140C02AD12A1A828981DA
:10FA5000BE016D5F7F4F843121F59601C05EDE4FA0
:10FA6000E880F9800A811B81C052D1400BBFF701A9
:10FA700087919691DB018C9311969C936E5F7F4FDB
:10FA8000D801C7010296A11DB11DC05EDE4F88835B
:10FA90009983AA83BB83C052D14022503040F1F6F3
:10FAA00036C0C05EDE4F288139814A815B81C052F9
:10FAB000D1400894C108D108760100E010E0089414
:10FAC000C11CD11C0894E11CF11C011D111DE20E8A
:10FAD000F31E041F151F21BDBB27A52F942F832FB5
:10FAE00082BD2F5F3F4F4F4F5F4FF89A80B5DB01CC
:10FAF0008D93BD012E153F054007510761F7C05E8C
:10FB0000DE4F288339834A835B83C052D1409601FC
:10FB10002D5F3F4FFB01108204C080EC8A8322E0FE
:10FB200030E08BE18093C6008091C00086FFFCCF5F
